S01600006C6561726E696E675F616C61726D2E7372656352
S11300000C9434000C9446000C9446000C94460066
S11300100C9446000C9446000C9446000C94460044
S11300200C9446000C9481000C9446000C944600F9
S11300300C9446000C9446000C9446000C94460024
S11300400C9446000C9446000C9446000C94460014
S11300500C9446000C9446000C9446000C94460004
S11300600C9446000C94460011241FBECFEFD8E038
S1130070DEBFCDBF21E0A0E0B1E001C01D92A430FD
S1130080B207E1F70E9448000C94C3000C940000EE
S113009084E08AB91092B00081E08093700087E018
S11300A08093B1007894FFCF20E030E080E090E0CE
S11300B0883E43E0940798F42436310528F45BB174
S11300C044E045274BB908C0283EE3E03E0710F45E
S11300D01BB802C020E030E02F5F3F4F0AC08032DF
S11300E0FFEB9F0710F41BB804C020E030E080E071
S11300F090E00196EFE9FFE03197F1F700C00000CE
S1130100D7CF1F920F920FB60F9211242F933F93C4
S11301104F935F936F937F938F939F93AF93BF930B
S1130120EF93FF938091000190910101A09102014E
S1130130B091030188312EE19207A105B10570F455
S11301400196A11DB11D8093000190930101A0931C
S11301500201B093030187E083BF04C01092B10091
S11301600E945400FF91EF91BF91AF919F918F91A5
S11301707F916F915F914F913F912F910F900FBE9F
S10D01800F901F901895F894FFCF1C
S9030000FC
