:100000000C9434000C9446000C9446000C9446006A
:100010000C9446000C9446000C9446000C94460048
:100020000C9446000C9493000C9446000C944600EB
:100030000C9446000C9446000C9446000C94460028
:100040000C9446000C9446000C9446000C94460018
:100050000C9446000C9446000C9446000C94460008
:100060000C9446000C94460011241FBECFEFD8E03C
:10007000DEBFCDBF21E0A0E0B1E001C01D92A43001
:10008000B207E1F70E9448000C94D7000C940000DE
:1000900084E08AB91092B00081E08093700087E01C
:1000A0008093B1007894FFCF40E050E0BA0180E047
:1000B00090E0DC01883E23E09207A105B105D0F471
:1000C000443651056105710528F43BB124E023272E
:1000D0002BB90BC0483EE3E05E076105710510F4E3
:1000E0001BB803C040E050E0BA014F5F5F4F6F4F55
:1000F0007F4F0FC08032FFEB9F07F2E0AF07B105E3
:1001000010F41BB806C040E050E0BA0180E090E077
:10011000DC010196A11DB11DEFE9FFE03197F1F778
:1001200000C00000C7CF1F920F920FB60F9211248C
:100130002F933F934F935F936F937F938F939F93EF
:10014000AF93BF93EF93FF9313BE80910001909103
:100150000101A0910201B091030188312EE19207C3
:1001600021E0A207B10570F40196A11DB11D809395
:10017000000190930101A0930201B093030187E075
:1001800083BF04C01092B1000E945400FF91EF9110
:10019000BF91AF919F918F917F916F915F914F919F
:1001A0003F912F910F900FBE0F901F901895F894CC
:0201B000FFCF7F
:00000001FF
